:1000000000800020B1010000DD010000DD010000E2
:10001000DD010000DD010000DD010000DD01000068
:10002000DD010000DD010000DD010000DD01000058
:10003000DD010000DD010000DD010000DD01000048
:10004000DD0100000D0F0000DD010000DD010000FA
:10005000DD010000DD010000DD010000DD01000028
:10006000DD010000DD010000DD010000DD01000018
:10007000DD010000DD010000DD010000DD01000008
:10008000DD010000DD010000DD010000DD010000F8
:10009000DD010000DD010000DD010000DD010000E8
:1000A000DD010000DD010000DD010000DD010000D8
:1000B000DD010000DD010000DD010000DD010000C8
:1000C000DD010000DD010000DD010000DD010000B8
:1000D000DD010000DD010000DD010000DD010000A8
:1000E00010B5054C237833B9044B13B10448AFF372
:1000F00000800123237010BD740000200000000068
:1001000024110000084B10B51BB108480849AFF393
:1001100000800848036803B910BD074B002BFBD0D3
:10012000BDE81040184700BF000000002411000087
:10013000780000207000002000000000154B002B0C
:1001400008BF134B9D46A3F5803A00218B460F460E
:100150001348144A121A00F0CBFF0F4B002B00D0AB
:1001600098470E4B002B00D0984700200021040038
:100170000D000D48002802D00C48AFF3008000F0BD
:1001800091FF2000290000F063FF00F077FF00BF1F
:1001900000000800008000200000000000000000B7
:1001A0007400002094000020000000000000000007
:1001B000064880470649074A074B9A42BEBF51F896
:1001C000040B42F8040BF8E7FFF7B8FF3103000017
:1001D000301100000000002074000020FEE700BF86
:1001E00080B400AF044BDB6C1B0EDBB21846BD467F
:1001F0005DF8047B704700BFB081E00F80B582B02E
:1002000000AF00F015F87860074B5B6803F00F0350
:100210001A467B68D3407B60044A7B6813607B6826
:1002200018460837BD4680BD00800C409000002075
:1002300080B582B000AF334BDB6A03F47053B3F583
:10024000805F0AD0B3F5005F03D0B3F5006F08D02C
:100250000BE02D4B1B687B6047E04FF400437B6055
:1002600043E02A4B1B687B603FE0264BDB6803F4CE
:10027000E063B3F5007F1BD0B3F5007F05D8002BFA
:1002800024D0B3F5807F16D02BE0B3F5806F09D072
:10029000B3F5A06F03D0B3F5407F06D021E01C4B2F
:1002A0007B6021E01B4B7B601EE01B4B7B601BE0F7
:1002B0001A4B7B6018E0FFF793FF0346122B02D91D
:1002C000174B7B6010E0174B7B600DE0FFF788FF5A
:1002D0000346122B02D9144B7B6005E0134B7B6065
:1002E00002E000237B6000BF00BF064B1B6803F4E5
:1002F000E0339B0B01337A68B2FBF3F318460837FF
:10030000BD4680BD00800C4004000020000000209D
:10031000003FAB01406F4001809FD500C0D8A700CF
:1003200040B56400C0CF6A00804F120040420F0009
:1003300080B400AF054A054BD3F8883043F470030E
:10034000C2F88830BD465DF8047B704700ED00E0E0
:1003500080B400AF4FF400431846BD465DF8047BFF
:10036000704700BF80B400AF4FF47A731846BD46A3
:100370005DF8047B704700BF80B400AF034B1B687F
:100380001846BD465DF8047B704700BF040000209E
:1003900080B487B000AFF860B9607A60FB6803F1A1
:1003A0000473DA00BB6813449B007B617B697A6845
:1003B0001A601C37BD465DF8047B704780B485B079
:1003C00000AF786039607B6803F10473DA003B6842
:1003D00013449B00FB60FB681B6818461437BD463E
:1003E0005DF8047B704700BF80B485B000AF7860D3
:1003F0007B68002B04D07B68B3F5004F00D800BFAA
:100400007B68B3FA83F3C3F11F03FB60FB681846F4
:100410001437BD465DF8047B704700BF80B400AF61
:10042000044BDB6C1B0EDBB21846BD465DF8047B4B
:10043000704700BFB081E00F80B584B000AF786036
:1004400039607A683B689A428CBF01230023DBB293
:10045000FB6006481E21FA68FFF79AFF044808214E
:10046000FA68FFF795FF1037BD4680BD00800C404D
:1004700004800C4080B582B000AF07481E21FFF712
:100480009DFF786005480821FFF798FF38607B687A
:1004900018460837BD4680BD00800C4004800C40E3
:1004A00080B582B000AF214B5B6903F4E063B3F524
:1004B000007F1CD0B3F5007F05D8002B25D0B3F505
:1004C000807F1FD02AE0B3F5C06F24D0B3F5E06F72
:1004D0001ED0B3F5407F21D1FFF7A0FF0346122BBA
:1004E00002D9134B7B601CE0124B7B6019E0FFF7D5
:1004F00095FF0346122B02D90F4B7B6011E00F4B87
:100500007B600EE00E4B7B600BE00E4B7B6008E0E7
:100510000D4B7B6005E00D4B7B6002E000237B60B0
:1005200000BF7B6818460837BD4680BD00800C4080
:10053000804F120040420F0040B56400C0CF6A00F7
:10054000C0D8A700809FD500406F4001003FAB019D
:1005500080B582B000AF0D4800F026FA0346FB706C
:10056000FB78072B05D0082B07D1FFF761FE7860D9
:1005700006E0FFF795FF786002E000237B6000BF94
:100580007B6818460837BD4680BD00BF06000C00DA
:1005900090B585B000AF78600023BB607B68344ABB
:1005A000934203D0334A934200D000E000BF786802
:1005B00000F0FAF90346FB607B682D4A934203D0B2
:1005C0002C4A934206D00CE02B4B9B6A03F00303AA
:1005D000FB6006E0284B9B6A03F00C039B08FB6062
:1005E00000BFFB68032B3AD801A252F823F000BFEA
:1005F00027060000010600000906000011060000A1
:10060000FFF7A6FEB8602DE0FFF7B6FEB86029E060
:10061000FFF7F4FD0446FFF72DFF0346013324FAEC
:1006200003F3BB601EE00023BB607B68104A93426B
:1006300003D07B680F4A934210D10F4B9A6A7B68B4
:100640000B498B4201D1102300E0142322FA03F35B
:10065000002B03D0FFF786FEB86003E002E0002322
:10066000BB6000BFBB6818461437BD4690BD00BFD5
:1006700002001A0003001C0000800C4080B483B00C
:1006800000AF7860094B5B6D03F00103002B00D0D5
:1006900006E000BF054B1A6D7B681340002BF9D1B3
:1006A0000C37BD465DF8047B704700BF00800C40EE
:1006B00080B582B000AF104800F076F90346FB70B9
:1006C000FB78032B07D0082B09D0022B0BD1FFF7A7
:1006D00053FE78600AE0FFF73BFE786006E0FFF724
:1006E000A7FD786002E000237B6000BF7B681846AE
:1006F0000837BD4680BD00BF0723220080B586B005
:1007000000AF78600B46FB7000233B617B681B0ADF
:1007100003F00F03013B092B46D801A252F823F046
:100720005F0700006507000049070000A9070000F7
:10073000A90700006B07000075070000A90700006B
:10074000A90700007F070000194B7B61194800F0E2
:100750003FF8034618461849FFF76EFE12E0174BA4
:100760007B610FE0164B7B610CE0164B7B61012334
:100770003B6107E0144B7B6110233B6102E0134BAC
:100780007B6100BF7B681B0B03F01F03FB603B69B1
:10079000002B02D03869FFF771FFFB787869F968A0
:1007A0001A46FFF7F5FD00E000BF1837BD4680BDD3
:1007B00040800C400043020000366E0108800C406F
:1007C00044800C4058800C4060800C4078800C4085
:1007D00090B585B000AF78607B6803F47813B3F50B
:1007E000B01F00F0AB80B3F5B01F1AD8B3F5402F9F
:1007F00000F0BF80B3F5402F08D8B3F5003F3CD0E0
:10080000B3F5802F2DD0002B27D0BEE0B3F5801F8D
:100810003CD0B3F5A01F47D0B3F5602F00F0AD80FA
:10082000B3E0B3F5081F00F0AC80B3F5081F0AD899
:10083000B3F5D01F25D0B3F5E01F7AD0B3F5C01FB4
:1008400000F08980A1E0B3F5201F4ED0B3F5281F3A
:1008500062D0B3F5181F35D097E0FFF7E9FCF860D8
:1008600096E0FFF7E5FCF8604C4B9B6803F00F0344
:100870001A46FB68D340FB608AE0FFF7BFFCF860D4
:1008800086E04748FFF784FEF86081E04448FFF7C0
:100890007FFEF860414B9B6E03F0F0031B091A4684
:1008A000FB68D340FB6073E03D48FFF771FEF860E2
:1008B0003A4B9B6E03F470631B0A1A46FB68D340E5
:1008C000FB6065E03648FFF763FEF860334B9B6ED4
:1008D00003F440531C0B1020FFF786FD034623440E
:1008E0001A46FB68D340FB6052E02D48FFF750FEEC
:1008F000F8602A4B9B6E03F440531B0B1A46FB68AF
:10090000D340FB60254BDB6F03F007030133FA682C
:10091000B2FBF3F3FB603BE02148FFF739FEF860E0
:100920001E4B9B6E03F003031A46FB68D340FB602B
:100930002EE01C48FFF72CFEF86029E01948FFF76D
:1009400027FEF860154B1B6F03F003031A46FB6884
:10095000D340FB601CE01348FFF71AFEF8600F4B12
:100960001B6F03F030031B091A46FB68D340FB6082
:100970000EE0FFF7EDFDF8600AE0FFF791FDF8608B
:1009800006E0FFF795FEF86002E00023FB6000BF81
:10099000FB6818461437BD4690BD00BF00800C4070
:1009A00002001A0003001C0080B485B000AF78601C
:1009B0000123FB737B6803F00F03BB60BB68013B43
:1009C000062B00F2938001A252F823F0E9090000FF
:1009D0001F0A00005B0A0000ED0A0000ED0A00009B
:1009E000970A0000B90A0000454BDB6A03F4705314
:1009F000B3F5805F09D0B3F5005F03D0B3F5006FA6
:100A000006D008E00223FB7308E00323FB7305E034
:100A10000423FB7302E00523FB7300BF69E0384B3E
:100A20009B6A03F00303022B06D0032B07D0012B94
:100A300008D10323FB730FE00223FB730CE00623B2
:100A4000FB7309E02E4B9B6A03F48033002B02D02A
:100A50000923FB7300E000BF4BE0294B9B6A03F0C6
:100A60000C03082B06D00C2B07D0042B08D1032332
:100A7000FB730FE00223FB730CE00623FB7309E01A
:100A80001F4B9B6A03F48013002B02D00923FB73D6
:100A900000E000BF2DE01A4B1B6803F08053002BD1
:100AA00003D0B3F1805F03D023E00723FB7302E0A0
:100AB0000823FB7300BF1CE0114BDB6A03F46033B7
:100AC000B3F5803F08D0B3F5003F08D0B3F5004F31
:100AD00008D10823FB7308E00223FB7305E003231E
:100AE000FB7302E00123FB7300BF02E00023FB73F2
:100AF00000BFFB7B18461437BD465DF8047B70478A
:100B000000800C4080B487B000AFF860B9607A60B4
:100B1000FB6803F10473DA00BB6813449B007B613C
:100B20007B697A681A601C37BD465DF8047B7047A4
:100B300080B485B000AFF860B9607A60FB681A686D
:100B4000BB68DB431A407B681A43FB681A601437A2
:100B5000BD465DF8047B704780B483B000AF0346A8
:100B60003960FB71FB79002B0DD0FB79012B0AD08A
:100B7000FB79022B07D0FB79032B04D0FB79042BE4
:100B800001D0FB79052B0949FA793B68012000FA6D
:100B900003F318461346DB0013449B000B44103349
:100BA00058600C37BD465DF8047B7047006000401C
:100BB00080B483B000AF03463960FB71FB79002B32
:100BC0000DD0FB79012B0AD0FB79022B07D0FB79E2
:100BD000032B04D0FB79042B01D0FB79052B0949A9
:100BE000FA793B68012000FA03F318461346DB004C
:100BF00013449B000B44103318600C37BD465DF85E
:100C0000047B70470060004080B586B000AFB960DB
:100C10007A601A460346FB731346BB7300237B615D
:100C2000FB7B002B0DD0FB7B012B0AD0FB7B022B27
:100C300007D0FB7B032B04D0FB7B042B01D0FB7B79
:100C4000052B7B68072B0ED87B689B001A46072371
:100C500003FA02F1FB7B7A689200934019481A4626
:100C6000FFF766FF10E07B68083B7B617B699B00B8
:100C70001A46072303FA02F1FB7B7A69920093403C
:100C800011481A46FFF754FFBB7B104879681A4693
:100C9000FFF738FF97F820300D4879681A46FFF7BC
:100CA00031FF0C4A7B68012101FA03F3C2F81C31C1
:100CB00097F82430084879681A46FFF723FF183759
:100CC000BD4680BD006100400461004008610040F5
:100CD0000C610040006000401061004090B585B09C
:100CE00000AFB9607B600346FB731346BB73FB7BAD
:100CF000002B0DD0FB7B012B0AD0FB7B022B07D0F6
:100D0000FB7B032B04D0FB7B042B01D0FB7B052B4F
:100D1000BB7B002B0DD07B68002B05D0FB7B1846DE
:100D2000B968FFF745FF04E0FB7B1846B968FFF799
:100D300013FFBB68072B1CD82A4CFA7B2948F97B88
:100D40000B46DB000B449B0003445968BB689B00C7
:100D500018460F238340DB430B40B97BB868800003
:100D6000814019431346DB0013449B002344596020
:100D700024E01C4CFA7B1B48F97B0B46DB000B4440
:100D80009B00034408331968BB6803F18043083BA8
:100D90009B0018460F238340DB431940B87BBB6898
:100DA00003F18043083B9B0000FA03F31943134609
:100DB000DB0013449B00234408331960BB7B002BEA
:100DC0000DD17B68002B05D0FB7B1846B968FFF777
:100DD000EFFE04E0FB7B1846B968FFF7BDFE143751
:100DE000BD4690BD0060004080B483B000AF0346B4
:100DF000FB71084997F907305B09FA7902F01F0285
:100E0000012000FA02F241F823200C37BD465DF8BC
:100E1000047B704700E100E080B483B000AF03467C
:100E2000FB71094997F907305B09FA7902F01F0253
:100E3000012000FA02F2603341F823200C37BD464E
:100E40005DF8047B704700BF00E100E080B483B030
:100E500000AF7860044A7B68C2F81C310C37BD468D
:100E60005DF8047B704700BF0060004080B483B031
:100E700000AF78600649064BD3F810217B68DB434E
:100E80001340C1F810310C37BD465DF8047B704744
:100E90000060004080B483B000AF78600649064B24
:100EA000D3F810217B681343C1F810310C37BD46CD
:100EB0005DF8047B704700BF0060004080B400AF65
:100EC000BD465DF8047B704780B582B002AF032059
:100ED000022102220123FFF701FF03200021042247
:100EE0000123FFF7FBFE002300930023019303205F
:100EF000022102220123FFF787FE0120FFF78CFF6A
:100F00000120FFF771FFBD4680BD00BF80B584B0F2
:100F100000AF0420FFF7AAFF0420FFF797FF00238C
:100F2000FB6086E0FB680133FB60FB6842F21072F5
:100F300093420CBF01230023DAB2FB6842F6F8218A
:100F40008B420CBF01230023DBB21343DBB21946F3
:100F5000FB6842F6E06293420CBF01230023DBB240
:100F60000B43002B15D00320002104220023FFF7A0
:100F7000B5FE0023BB6002E0BB680133BB60BB6809
:100F8000B3F5FA7FF8DD0320002104220123FFF7E7
:100F9000A5FEFB6843F69822934216D10320002158
:100FA00004220023FFF79AFE00237B6002E07B68A7
:100FB00001337B607B6841F288329342F7DD032086
:100FC000002104220123FFF789FEFB6845F2082275
:100FD00093420CBF01230023DAB2FB6845F2F051C3
:100FE0008B420CBF01230023DBB21343DBB2194653
:100FF000FB6845F6D81293420CBF01230023DBB2F5
:101000000B43002B15D00320002104220023FFF7FF
:1010100065FE00233B6002E03B6801333B603B68B8
:10102000B3F5FA7FF8DD0320002104220123FFF746
:1010300055FEFB684AF6C87293427FF773AF0420EF
:10104000FFF704FF0420FFF725FF1037BD4680BDE2
:1010500080B582B000AFFFF731FF07480121FFF7ED
:101060004DFBFFF731FF0420FFF714FF00237B60E7
:101070007B6801337B60FBE700D2040008B5074BB7
:10108000044613B10021AFF30080054B1868836A52
:1010900003B19847204600F033F800BF000000007D
:1010A0002011000070B50E4B0E4CE41AA410002560
:1010B0001E46A54204D056F8253098470135F8E77A
:1010C00000F020F8084C094BE41AA41000251E4635
:1010D000A54204D056F8253098470135F8E770BD91
:1010E00068000020680000206C00002068000020DC
:1010F00002440346934202D003F8011BFAE770470B
:10110000FEE700BFF8B500BFF8BC08BC9E467047BC
:10111000F8B500BFF8BC08BC9E467047430000000D
:0811200008000020000000009F
:0811280014F0FF7F010000003C
:10113000006CDC02008000000000000000000000E5
:10114000000000000000000000000000000000009F
:1011500000000000000000001C1100000000000062
:10116000000000000000000000000000000000007F
:10117000000000000000000000000000000000006F
:10118000000000000000000000000000000000005F
:10119000000000000000000005010000E100000068
:0411A000000000004B
:04000003000001B147
:00000001FF
